:100000000C942A000C9434000C9434000C943400AA
:100010000C9434000C9434000C9434000C94340090
:100020000C9434000C9434000C9434000C94340080
:100030000C9434000C9434000C9434000C94340070
:100040000C9434000C9434000C9434000C94340060
:100050000C94340011241FBECFE5D8E0DEBFCDBF25
:100060000E9436000C9494000C9400008FEF84BB27
:10007000A1E0B0E0FFEBEFED7FEE67EF5BEF4DEF60
:1000800090E080E09D01082E01C0220F0A94EAF75B
:10009000209525BB2FE739EAC3E021503040C0400E
:1000A000E1F700C0000001968830910559F7F5BBD3
:1000B0002FE739EA83E0215030408040E1F700C06B
:1000C0000000E5BB9FE7C9EA23E09150C040204013
:1000D000E1F700C0000075BB3FE789EA93E03150CB
:1000E00080409040E1F700C0000065BBCFE729EAFF
:1000F00033E0C15020403040E1F700C0000055BB64
:100100008FE799EAC3E081509040C040E1F700C01A
:10011000000045BB2FE739EA83E0215030408040A2
:0C012000E1F700C00000ACCFF894FFCF66
:00000001FF
